S01800006275696C642F6D6963617A2F6D61696E2E73726563E5
S11300000C9449000C9406050C9410050C941A05E4
S11300100C9424050C942E050C9438050C940907B3
S11300200C9442050C9468000C9468000C943A0AF1
S11300300C94950C0C94D0040C94E6040C94840554
S11300400C94BF040C94C90E0C9468000C946800C2
S11300500C9468000C9468000C9468000C9468007C
S11300600C94DB040C9468000C9468000C946800F5
S11300700C9468000C9468000C9468000C9468005C
S11300800C9468000C9468000C94680000081C1818
S1130090141011241FBECFEFD0E1DEBFCDBF11E09D
S11300A0A0E0B1E0E8EDF1E300E00BBF02C007908F
S11300B00D92AE30B107D9F712E0AEE0B1E001C065
S11300C01D92AD34B107E1F70E9418150C94EB189A
S11300D00C9400008FB7F894992708958FBF089562
S11300E0FC0182819927582F442781819927482B25
S11300F0592BCA01892F992786958695837090700C
S11301008230910559F08330910559F0892B19F407
S113011020E030E008C02CE93FEF05C022E030E0E9
S113012002C028E030E0CA0184E0989F812D99271D
S113013011248230910559F08330910559F0892BAF
S113014019F480E090E008C08CE99FEF05C082E0DC
S113015090E002C088E090E0280F391F2A5F3F4FEB
S1130160CF01820F931F0895282F9FB7F894662319
S113017049F0E82FFF27ED52FE4F8081882311F0CC
S113018021E006C0E22FFF27ED52FE4F608320E0FE
S1130190892F99278FBF822F99270895E82F8FB72A
S11301A0F894282F332790E0FF27ED52FE4F8081EB
S11301B0861709F491E02FBF892F99270895882382
S11301C011F06E9A08956E980895882311F06F9A2D
S11301D008956F98089580E00E94DF00BA9ABB9852
S11301E0B99AB89A6C9A80E00E94E5006B986A9874
S11301F081E00E94DF00709A8DB18C7F8DB90895E3
S11302000F931F93CF93DF93182F8FB7F894C82FB2
S1130210DD270C2F61E080E00E94B400882321F0E8
S1130220CFBF85E090E024C0809106018823A1F42B
S113023080912101823081F409C082E08093210100
S1130240109206010E94EB00B89AC0981093030123
S113025080E00FBF99270CC080912101882369F3A6
S11302608FB7F89499271092D3018FBF81E0F1CF13
S1130270DF91CF911F910F910895282F9FB7F89484
S1130280E82FFF27EB5BFE4F80818F3F81F4E091E5
S11302904B02E21771F40BC020933D0204C0FF2708
S11302A0EB5BFE4F208320934B0220E007C025E048
S11302B005C080913D028F3F91F7EECF892F99279A
S11302C08FBF822F992708951F93182F81E00E94D2
S11302D0DF001FB9779BFECF8FB199271F91089537
S11302E08F929F92AF92BF92CF92DF92EF92FF9242
S11302F00F931F93CF93DF938FB7F8949927C090F0
S11303004602D09047028090CC019090CD01C091DC
S1130310B401D091B50120912A0130912B01EAE07A
S1130320AE2EB12CAC0EBD1E2A153B0508F45901A6
S11303308FBF7401EC0EFD1E86010C0F1D1F14C02F
S1130340C114D10419F0F801808101C080E00E9439
S113035064018114910411F0F701808321960894BB
S1130360E11CF11C0F5F1F4FC5010197C817D90786
S113037038F381E00E94E5009FB7F894C114D104DA
S113038031F0CC0EDD1EF60180818FB901C01FB89B
S1130390D093B501C093B401892F99278FBF80E012
S11303A090E0DF91CF911F910F91FF90EF90DF903C
S11303B0CF90BF90AF909F908F9008952FB7F894EF
S11303C0332750932B0140932A0190934702809343
S11303D046027093CD016093CC011092B501109246
S11303E0B4012FBF452B29F08FB10E9470019927CA
S11303F0089589E00E943D0180E090E008958FB760
S1130400F89499271092D5018FBF08957FB7F89477
S113041062B720912D0130912E0140912F0150910E
S1130420300106B601FE0FC081B792B7280F311D07
S1130430411D511D2F5F3F4F4F4F5F4F290F311DFE
S1130440411D511D04C0260F311D411D511D872F13
S113045099278FBFCA01B9010895DF92EF92FF92E5
S11304600F931F938FB7F894282F3327D22E91B769
S113047082B746B7981711F041FF02C02FBF68C07A
S11304808091B3018823D1F10E940602E090CF014C
S1130490F090D0010091D1011091D20120913F013F
S11304A03091400140914101509142016E197F0900
S11304B0800B910B621773078407950728F010923D
S11304C0B30186EE71E01CC02E0D3F1D401F511F6D
S11304D080912D0190912E01A0912F01B0913001B6
S11304E0281B390B4A0B5B0B273E3105410551058F
S11304F028F4822F223018F482E001C086EE70E0E6
S1130500682F615000B601FCFDCF82B7681709F46B
S11305106F5F20912D0130912E0140912F01509158
S11305203001DA01C9010196A11DB11D860F911D8B
S1130530A11DB11D82179307A407B50710F4622FFC
S1130540609561BFDFBE772319F08CE00E943D0106
S11305501F910F91FF90EF90DF900895AFB7F8943B
S1130560BB27E1E0E093B3016093CF017093D00126
S11305708093D1019093D20120933F0130934001A5
S11305804093410150934201AFBF0E942D02089550
S113059080E88093430110925E0110924002109211
S11305A03C0210925A010895CF93DF93FC0115A6E3
S11305B0DC019E96ED011B821A82198280E886A7CF
S11305C0DF91CF9108952F923F924F925F926F9255
S11305D07F928F929F92AF92BF92CF92DF92EF92CF
S11305E0FF920F931F93CF93DF93CDB7DEB7289776
S11305F00FB6F894DEBF0FBECDBF209064013090DB
S11306006501409066015090670166247724882430
S1130610BEE4AB2EA3E8BA2ECC24DD24EE24FF24C2
S113062000E010E0222D332D442D552D662D772D1D
S1130630882D90E00E94CD1629833A834B835C83F6
S11306406D837E838F839887822E932EA42EB52E5E
S11306502401350100E20E94CB17A22EB32EC42E32
S1130660D52EC301B20196958795779567956A0D46
S11306707B1D8C1D9D1D97FF05C09F776F5F7F4F6E
S11306808F4F9F4F6093640170936501809366015F
S11306909093670128960FB6F894DEBF0FBECDBFC6
S11306A0DF91CF911F910F91FF90EF90DF90CF904A
S11306B0BF90AF909F908F907F906F905F904F907E
S11306C03F902F9008958FB7F8946091B80170917E
S11306D0B9012CB53DB506B602FE04C06F5F7F4F6D
S11306E02CB53DB599278FBF88279927CB0177274C
S11306F0662744275527622B732B842B952B08954B
S1130700EF92FF920F931F930E9463037B018C016E
S113071020916E0130916F014091700150917101EF
S11307208091690190916A01A0916B01B0916C0173
S1130730820F931FA41FB51FE216F30604071507C3
S113074030F082179307A407B50758F005C0821745
S11307509307A407B507E0F5E816F9060A071B078F
S1130760B8F59C01AD012E193F09400B510B213006
S113077060E8360760E0460760E0560768F180E00D
S113078090E8A0E0B0E0E80EF91E0A1F1B1FE092FB
S11307906E01F0926F01009370011093710180E07B
S11307A090E8AFEFBFEFE80EF91E0A1F1B1F2050A1
S11307B03048404050402093690130936A0140938F
S11307C06B0150936C0120E030E840E050E014C02D
S11307D020E030E040E050E080936E0190936F01A0
S11307E0A0937001B09371011092690110926A0193
S11307F010926B0110926C01A901B7012CB53DB5A3
S1130800C9018E199F0903968417950720F0B90131
S11308106D5F7F4F02C0640F751F6115710511F480
S113082061E070E0615070407BBD6ABD80E186BFCD
S113083087B7806187BF1F910F91FF90EF90089554
S11308400F931F930FB7F894112760936E01709361
S11308506F0180937001909371012093690130932B
S11308606A0140936B0150936C010E9480030FBF97
S11308701F910F910895CF92DF92EF92FF920F9301
S11308801F93CF93DF938C01F62E6A01E22E8FB76C
S1130890F894C82FDD2760E080E00E94CE00882312
S11308A021F0CFBF80E090E01EC0CFBF0F0D111D1F
S11308B0802F80680E946401F82E16950795802F7A
S11308C0807C0E9464010E2D0AC0EE2DFF27E01BE0
S11308D0F109EC0DFD1D80810E946401015000238B
S11308E0A1F78F2D9927DF91CF911F910F91FF9041
S11308F0EF90DF90CF90089597B79F7D97BF90E2D8
S113090096BF882319F08EB5806402C08EB58F7BA4
S11309108EBD87B7806287BF80E090E00895AF9274
S1130920BF92CF92DF92EF92FF920F931F93CF93D8
S1130930DF93CDB7DEB728970FB6F894DEBF0FBEAE
S1130940CDBF20E070E0E0910001F091010132E1BF
S11309504DE65CE46FE4809101019E2F28960FB66A
S1130960F894DEBF0FBECDBFDF91CF911F910F91E1
S1130970FF90EF90DF90CF90BF90AF9008951F92BB
S11309800F920FB60F9211248F9383B783BF00B6D3
S113099000FCFDCF8F910F900FBE0F901F90189504
S11309A078941F920F920FB60F9211240F900FBEDE
S11309B00F901F90189578941F920F920FB60F9274
S11309C011240F900FBE0F901F90189578941F92CA
S11309D00F920FB60F9211242F933F938F939F93EF
S11309E02FB7F89433278091B8019091B9010196FB
S11309F09093B9018093B8012FBF9F918F913F913C
S1130A002F910F900FBE0F901F9018951F920F9269
S1130A100FB60F9211240F900FBE0F901F901895D0
S1130A201F920F920FB60F9211240F900FBE0F90CA
S1130A301F9018951F920F920FB60F9211240F90CA
S1130A400FBE0F901F9018951F920F920FB60F9222
S1130A5011240F900FBE0F901F9018951F920F92A4
S1130A600FB60F9211240F900FBE0F901F90189580
S1130A701F920F920FB60F9211240F900FBE0F907A
S1130A801F9018951F920F920FB60F9211240F907A
S1130A900FBE0F901F901895CF93DF93CDB7DEB79D
S1130AA02C970FB6F894DEBF0FBECDBF8FB7F89466
S1130AB0282FAE014F5F5F4FDA01E9EDF1E088E0E6
S1130AC001900D928150E1F780915F019091600156
S1130AD08987892F99278A878091A6019091A701F8
S1130AE08B87892F99278C872FBF2CE060E080E6C5
S1130AF091E00E943B042C960FB6F894DEBF0FBE23
S1130B00CDBFDF91CF9108951F920F920FB60F9230
S1130B1011242F933F934F935F936F937F938F93FE
S1130B209F93AF93BF93EF93FF9383B783BF00B6B5
S1130B3000FCFDCF81B799270196AA27BB272091F6
S1130B402D0130912E0140912F0150913001280F39
S1130B50391F4A1F5B1F20932D0130932E014093B0
S1130B602F015093300178940E942D02FF91EF9150
S1130B70BF91AF919F918F917F916F915F914F91B1
S1130B803F912F910F900FBE0F901F901895AF9229
S1130B90BF92CF92DF92EF92FF920F931F935B016C
S1130BA06C016091C20161FF1EC02091BA013091B5
S1130BB0BB014091BC015091BD01E090BE01F09099
S1130BC0BF010091C0011091C101D601C501821B72
S1130BD0930BA40BB50B8E159F05A007B10718F056
S1130BE0EAEBF1E01FC0E3ECF1E06091CB0161FFBF
S1130BF027C02091C3013091C4014091C501509197
S1130C00C601E090C701F090C8010091C90110919C
S1130C10CA01A21AB30AC40AD50AAE14BF04C00694
S1130C20D10670F060FF04C080858D7F808708C086
S1130C302E0D3F1D401F511F208331834283538358
S1130C408DE00E943D011F910F91FF90EF90DF9086
S1130C50CF90BF90AF9008950F931F93182F0FB7A5
S1130C60F89461E080E00E94B400882371F5109349
S1130C700301809106018823A9F580912101823026
S1130C8089F588E00CC00E94EB0080912101882343
S1130C9049F481E08093210110925B018AE00E9473
S1130CA03D012AC080916D018F3F31F5E09105012E
S1130CB0EE2311F11CC01092040104C0FF27E35974
S1130CC0FE4F10821092050117C081E090E002C02F
S1130CD0880F991F1A95E2F720912001282B209361
S1130CE020010AC0809121018823E1F6CCCF8091B4
S1130CF004018F3F19F7DFCF802F99278FBF80E042
S1130D0090E01F910F9108951F9383E00E940001CA
S1130D109927182F882319F083E00E942C06812F2D
S1130D2099271F9108951F93CF93DF93182F8FB79F
S1130D30F894C82FDD2760E080E00E94CE0088236D
S1130D4021F0CFBF80E090E005C0CFBF812F0E948B
S1130D5064019927DF91CF911F910895EF92FF923B
S1130D600F931F93CF93DF93182F7B01042F8FB71B
S1130D70F894C82FDD2760E080E00E94CE0088232D
S1130D8021F0CFBF80E090E014C0CFBF1064812F6A
S1130D9099279093AB018093AA010E946401182FB4
S1130DA0402F5527B70180E090E00E94DE01812F9B
S1130DB09927DF91CF911F910F91FF90EF900895A4
S1130DC0C098609128017091290141E08FE30E944D
S1130DD0AE06089582E090E090935501809354010B
S1130DE081E080935E0120E030E080910301843053
S1130DF011F421E030E0232B29F484E00E94000167
S1130E00882319F40E94E006089584E00E942C06C9
S1130E1008951F920F920FB60F9211242F933F93B0
S1130E204F935F936F937F938F939F93AF93BF93EE
S1130E30EF93FF938091540190915501019749F4E8
S1130E4082E090E090935501809354010E94EA0659
S1130E5005C080915A018F5F80935A01FF91EF91F1
S1130E60BF91AF919F918F917F916F915F914F91BE
S1130E703F912F910F900FBE0F901F9018951F93C5
S1130E8080912001882309F04BC0109103011F3F7A
S1130E9009F046C060E00E94CE00882309F440C0F7
S1130EA081E08093E201809144018823E1F1109272
S1130EB0E20185E090E045C0923069F5C09A8091E6
S1130EC0040120E030E08F3F11F421E030E0232BD7
S1130ED0E9F4109306018F3F19F42FEF30E00DC0B1
S1130EE0282F3327F901E359FE4F808180930401B1
S1130EF08F3F11F410930501108320935B0181E06F
S1130F00809321018AE00E943D0105C010930601EF
S1130F101092210111C080912101882369F00FC032
S1130F2081E090E00EC08091060190912101882318
S1130F3019F2923021F0EFCF80E00E94DF0080E0D0
S1130F4090E01F9108951F93CF93DF939FB7F89478
S1130F50C92FDD271C2F90910301981721F0CFBFD3
S1130F6081E090E03AC08FEF80930301309120013B
S1130F703323F1F48FB7F89499271092D3018FBFDC
S1130F800E943F07CFBF11C02093030181E090E08E
S1130F9002C0880F991F4A95E2F780953823309351
S1130FA0200188E00E943D011FBF80E090E015C051
S1130FB080E065E0E32FFF270E944E18292F492F78
S1130FC05527CF01042E02C0959587950A94E2F720
S1130FD080FDDACF822F8F5FEFCFDF91CF911F910A
S1130FE008951F93CF93DF938FB7F894C82FDD270D
S1130FF01C2F8091540190915501892B29F484E090
S11310000E94A307CFBF1EC010925E0180915A01B7
S1131010882311F0B79904C00E9908C0882319F0E9
S1131020815080935A010E94EA060BC081E090E04F
S1131030909355018093540110925A0184E00E94C8
S1131040A3071FBFDF91CF911F9108950E94C8028B
S1131050C09AC09888E00E94930688E00E94930694
S1131060C09A84E00E94A3070E94F1070895FF92AA
S11310700F931F93CF93DF93F82E8B018FB7F894C0
S1131080C82FDD2760E080E00E94CE00882321F095
S1131090CFBF80E090E00CC0CFBF8F2D0E946401D1
S11310A0812F99270E946401802F0E94640199274F
S11310B0DF91CF911F910F91FF9008951F931FB758
S11310C0F89480915901882319F460E070E009C014
S11310D060E080914502882309F461E081E068279B
S11310E0772780916101882319F480E090E00AC099
S11310F090E08091D801882309F491E081E0982759
S1131100892F9927762F6627770F770F770FF4E0CB
S1131110880F991FFA95E1F7826E9262682B792BFA
S113112081E10E943708812F99278FBF1F9108956D
S11311308FB7F89499276091E1018FBF85E0689F8C
S1131140B0011124625D7E4F706488E10E9437080B
S11311500895EF92FF921F93CF93DF93E090620183
S1131160F0906301F70182A59927182F882309F4C9
S11311701FE1C09880915801811749F0612F7727AA
S11311806F717070606E706885E10E94370810930B
S11311905801F70110818FB7F894C82FDD2760E05C
S11311A080E00E94CE00882311F0CFBF12C0CFBFD1
S11311B08EE390E09093AB018093AA018EE30E94AA
S11311C064011150412F552760E070E0C7010E946F
S11311D0DE01DF91CF911F91FF90EF9008950F935F
S11311E01F93CF93DF93EC010FB7F89411270E945C
S11311F07000FC018FE380830FBF109243021092B2
S1131200420261E082E00E94B400882319F085E084
S113121090E072C08091E3018F5F8093E30181507D
S11312208B838FB7F894082F112762E081E00E9426
S1131230CE00882329F40FBF0E94FF0181E05BC028
S11312408FB7F894992724E02093D4018FBFD093CB
S1131250B201C093B1010FBFFE0131968181298192
S11312609927982F88273327822B932B80729C7C75
S11312708983892F992781832981982F8827332768
S11312802164822B932B8983892F992781831CA620
S113129018A619A619AA18AA1FA680E88EA761E0A5
S11312A06093D7014091B1015091B2018FB7F89486
S11312B0282F3327809122019091230188309105B2
S11312C011F0019711F02FBF15C082E090E09093C8
S11312D023018093220160934C0250936301409355
S11312E0620110922C012FBF0E948406882311F4FE
S11312F00E94A90880E09927DF91CF911F910F9157
S11313000895CF93DF9310920201A091B601B0919A
S1131310B701109721F08091410280FF6DC081E0F8
S11313208093020172C09927982F88273327822B34
S1131330932BED014B878E83892F99278F832FB7AA
S1131340F894332780915F01909160012FBFFD01D4
S11313508483892F992785832FB7F8943327809125
S11313600701909108012FBF8887892F99278987C2
S11313703196818129819927982F882733272064E2
S11313803868822B932B8983892F99278183635F04
S11313906C936D5080910A01882351F010920A01D8
S11313A0CD010E94EF089927282F8823A9F417C09C
S11313B0862F99279093B0018093AF01B0932701B2
S11313C0A09326018EE00E943D0180910A018823AA
S11313D049F489E090E00AC08FEF80930A01822FDC
S11313E0992704C01092680180E090E0892B69F08D
S11313F081E00E943D0109C0FD014385878126816A
S11314006C916D506D31A0F78ECFDF91CF9108951F
S1131410CF93DF9380910201882391F4C091B601A8
S1131420D091B701C617D70759F41092B70110929B
S1131430B6010E948109C257D14011F41092AE0145
S1131440DF91CF9108951F93182F81E090E090933E
S1131450230180932201109244010E943F078FB719
S1131460F894992710931C018FBF84E00E943D01DA
S11314701F91089578941F920F920FB60F92112422
S11314802F923F924F925F926F927F928F929F9290
S1131490AF92BF92CF92DF92EF92FF920F931F937E
S11314A02F933F934F935F936F937F938F939F9368
S11314B0AF93BF93CF93DF93EF93FF93C6B5D7B5A5
S11314C08FB7F894282E0E9463039B012C1B3D0BBD
S11314D0442755272B013C01421A530A640A750A12
S11314E080912201909123018530910521F0069786
S11314F009F0E0C0BFC086E090E0909323018093A0
S1131500220131E0332E30925D011092240180E0FB
S11315100E947C04E0916201F091630141AABB271F
S1131520A72D962D852D80ABC301AA27BB2787A79E
S1131530872D9927AA27BB2786A7E0916201F091FE
S1131540630185A5882309F484C0608165507727E9
S11315504F01860E971EF4012081E1808281A380D1
S11315609927AA27BB27BA2FA92F982F8827332773
S113157044275527522F442733272227FF240027A7
S113158011278701FF24EE242E293F29402B512BBC
S1131590BB24CC24DD242A293B294C295D29822B18
S11315A0932BA42BB52B84199509A609B70983831A
S11315B0292F3A2F4B2F552722839D014427552746
S11315C021838B2F9927AA27BB278083C09824E0E7
S11315D0A40180E090E00E943B04C09AF4012081C1
S11315E0E1808281A3809927AA27BB27BA2FA92F3C
S11315F0982F8827332744275527522F44273327EA
S11316002227FF24002711278701FF24EE242E29F7
S11316103F29402B512BBB24CC24DD242A293B29F0
S11316204C295D29822B932BA42BB52B840D951D5E
S1131630A61DB71D8383292F3A2F4B2F55272283AD
S11316409D014427552721838B2F9927AA27BB2740
S11316508083E0916201F0916301818185FF02C082
S11316603092440183E00E94A30787B78F7E87BF2F
S113167084997AC010925D0181E00E947C04E0911B
S11316806201F0916301818185FF0FC087E090E0E2
S113169090932301809322010E94630320E031E0B0
S11316A040E050E00E94200403C080E00E94230A2E
S11316B0849B5AC080912401882391F580915D0117
S11316C0882371F511E010935D010E947C0480B3BE
S11316D020913C02283098F4E0914002E20FFF2769
S11316E0E770F070EE0FFF1FEE0FFF1FE851FE4F83
S11316F040825182628273822F5F20933C02109356
S11317002401D093AD01C093AC0184992DC09927D5
S113171064E0969587956A95E1F7182F117001C0DA
S113172010E080915D018130F9F410925D010E9416
S11317307C04109224011123B9F48091AC0190919E
S1131740AD01C81BD90B2A9778F480913C028823F9
S113175019F0815080933C02809162019091630161
S1131760009711F00E94D4022FBEFF91EF91DF91F8
S1131770CF91BF91AF919F918F917F916F915F9125
S11317804F913F912F911F910F91FF90EF90DF9018
S1131790CF90BF90AF909F908F907F906F905F900D
S11317A04F903F902F900F900FBE0F901F90189561
S11317B0CF92DF92EF92FF920F931F93CFB6F894DC
S11317C0DD240E94E302DC01CB0166E470E00E94A8
S11317D05A184BE0E42EF12CE80EF91EF09249025F
S11317E0E09248020E94630300271127A801970191
S11317F00E942004CFBE1F910F91FF90EF90DF90C5
S1131800CF90089561E081E00E94B4008823E9F458
S11318108FB7F894282F332780911D0190911E01D2
S1131820892B11F02FBF20C081E090E090931E011E
S113183080931D012FBFDD9A0E94630324E130E0F1
S113184040E050E00E9420040FC062E081E00E946A
S1131850CE00882319F089E090E0089561E081E0EA
S11318600E94CE00882319F080E090E0089585E07E
S113187090E008951F93CF93DF938FB7F894C82F08
S1131880DD271C2F80912201909123010897C9F430
S113189089E00E94930683E00E94A307C09A81E036
S11318A090E090932301809322018FB7F8949927B5
S11318B023E020931C018FBF84E00E943D01CFBF31
S11318C030C0C09880914C02882311F085E001C09B
S11318D084E00E94930683FD09C080E00E94930681
S11318E083FF04C085E090E020E003C083E090E043
S11318F021E09093230180932201C09A1FBF2223E9
S113190041F010922C0183E00E94A3070E94D80B9F
S113191008C00E94630320E431E040E050E00E94EC
S11319202004DF91CF911F91089578941F920F9214
S11319300FB60F9211241F932F933F934F935F93EE
S11319406F937F938F939F93AF93BF93EF93FF9383
S113195087B78F7E87BF78941FB7F8948091690109
S113196090916A01A0916B01B0916C010097A1055F
S1131970B10509F051C08091220190912301853075
S1131980910561F18630910530F48330910549F079
S1131990049781F51AC087309105F1F0089751F545
S11319A014C0869B0FC084E090E090932301809341
S11319B022010E94630327E030E040E050E00E94EF
S11319C0200418C00E94D80B15C00E9484068823E6
S11319D089F40E943A0C0EC080E00AC089E00E949B
S11319E0930681E00E947C0483E00E94A30787E0C1
S11319F00E94230A80911D0190911E01019771F4A8
S1131A0082E090E090931E0180931D01DE98DE9A9F
S1131A1080E00E942C0602C00E948003812F992737
S1131A208FBFFF91EF91BF91AF919F918F917F9164
S1131A306F915F914F913F912F911F910F900FBE26
S1131A400F901F901895EF92FF920F931F93CF93CF
S1131A50DF938B018091AA019091AB0186FF40C175
S1131A608F7B8F3309F08EC1C0912801D091290159
S1131A7058815093560180915401909155018530BD
S1131A80910509F443C08630910509F48AC0029790
S1131A9009F01FC185E090E09093550180935401B3
S1131AA040914301852F99270196242F3327281726
S1131AB039074CF1B79906C00E9904C0451B415033
S1131AC040934301409156014A32E8F44423A1F083
S1131AD0BE016F5F7F4F483018F047E050E007C009
S1131AE086E090E09093550180935401552780E05F
S1131AF090E00E94DE0146C110925E01C09A84E02B
S1131B000E94A307E3C00E9426083CC186E090E03F
S1131B10909355018093540180916101882309F4C5
S1131B2039C08091D8018823A9F5898185FF32C005
S1131B308F814E812FB7F89433276091A60170915D
S1131B40A7012FBF9927982F88275527842B952BDA
S1131B508617970759F08F812E819927982F882708
S1131B603327822B932B8F5F9F4FA1F4898187703A
S1131B70813081F4C09AC0988AE00E949306C09A8A
S1131B80C0984091560147502896BE018FE30E94A9
S1131B90AE06F8C040915601475055272896BE011D
S1131BA0A6CFC09A80915A01882339F484E00E9418
S1131BB0A30780915A01882311F0B7990AC00E9B9C
S1131BC008C090913C02992321F0809156018B30FA
S1131BD038F480912801909129010E94D4023DC0DB
S1131BE0913001F5E0914002FF27EE0FFF1FEE0F49
S1131BF0FF1FE851FE4F2081318142815381E091E2
S1131C002801F091290121ABBB27A52F942F832F05
S1131C1080ABCA01AA27BB2787A7252F33274427D0
S1131C20552726A7809140029927019668E070E025
S1131C300E946E188093400280913C0281508093F0
S1131C403C02882351F080912801909129010E943F
S1131C50D4021092400210923C0280915601FE017F
S1131C60E80FF11D808187FF31C0012B79F1698173
S1131C706770E0912801F0912901623019F5A09173
S1131C806201B0916301109709F180912201909152
S1131C9023010797D9F4ED019B8183819817B1F44F
S1131CA087B78F7E87BF908181E08CA7E90FF11DF4
S1131CB08291319688A780818F7789A780E00E94DE
S1131CC0230A04C0613011F48BE02AC00E94F1079A
S1131CD059C010925E01C09A84E00E94A30752C0CA
S1131CE08E3309F04FC0C09A809122019091230154
S1131CF00897C9F4C09889E00E949306C09A83E0CB
S1131D000E94A30781E090E0909323018093220135
S1131D108FB7F894992723E020931C018FBF84E0A8
S1131D200E943D012FC080914C02882349F484E035
S1131D3090E090932301809322010E943A0C22C0E8
S1131D4083E00E94A30783E090E0909323018093B3
S1131D5022010E94E302DC01CB0166E371E00E94F0
S1131D605A185BE0E52EF12CE80EF91EF0923E01C4
S1131D70E0923D010E94630300271127A801970107
S1131D800E942004DF91CF911F910F91FF90EF905B
S1131D9008951F920F920FB60F9211242F933F9321
S1131DA04F935F936F937F938F939F93AF93BF935F
S1131DB0EF93FF932FB1E091CC01F091CD013097D7
S1131DC039F08091B4019091B501E80FF91F208397
S1131DD08091B4019091B50101969093B5018093DF
S1131DE0B40180E00E94E50040912A0150912B014A
S1131DF08091B4019091B5018417950718F40E945D
S1131E0070011CC06091CC017091CD01809146029B
S1131E10909147021092CD011092CC01109247028A
S1131E201092460210922B0110922A011092B501D1
S1131E301092B4012FB120E00E94230DFF91EF9185
S1131E40BF91AF919F918F917F916F915F914F91CE
S1131E503F912F910F900FBE0F901F9018958F9266
S1131E609F92AF92BF92CF92DF92EF92FF920F9325
S1131E701F93CF93DF93CDB7DEB7A8970FB6F8942F
S1131E80DEBF0FBECDBF873009F457C1883098F448
S1131E90833009F4D8C0843038F4813009F450C058
S1131EA0823008F067C022C0853009F423C186302F
S1131EB008F03CC1CEC08B3009F46BC28C3038F4CE
S1131EC0893009F42FC28A3008F04FC270C18D30B6
S1131ED009F4D8C48D3008F4A0C48E3009F078C554
S1131EE04DC52FBF75C5C601B501C9C48091410256
S1131EF0882309F46DC540E051E090914102852F9B
S1131F008923C1F0E42FFF27EE0FFF1FEA54FE4F91
S1131F102081318111821082852F8095982390939E
S1131F204102442339F42257314009F04EC510923E
S1131F30AE014BC54F5F483008F04AC5550FDDCFA1
S1131F4010910201E12FFF27EE0FFF1FEA54FE4F0D
S1131F50E080F180118210820E948109112309F02E
S1131F6037C552E7E51651E0F50609F031C5109280
S1131F70AE012EC50FB7F894112781E00E947C04AE
S1131F8041E0E42EF12CF0922301E0922201109220
S1131F90240110924401109258010FBF0FB7F89416
S1131FA011270E94C802F0925501E0925401109248
S1131FB05E0189B78F7B89BF80E488BF8AB780625E
S1131FC08ABF8AB78F7E8ABF89B7806489BF0FBFF3
S1131FD08FB7F894082F112780911D0190911E014D
S1131FE0049719F483E00E9493060FBF0FB7F89487
S1131FF01127C09A80E00E94A3070FBF8FB7F894FF
S1132000992722E02093D4018FBF0E940602609397
S1132010C3017093C4018093C5019093C6018AEFF4
S113202090E0A0E0B0E08093C7019093C801A09332
S1132030C901B093CA018091CB018E7F82608093E5
S1132040CB018DE0B1C08FB7F89499271092D401D9
S113205072C08FB7F8949927F0901C018FBF63E08A
S113206081E00E94CE00882359F10FB7F89411271C
S1132070109223011092220187B78F7E87BF87B702
S11320808F7D87BF83E00E94A307C09A0FBF0FB75D
S1132090F894112710925501109254010E94C8021D
S11320A0C09A89B78F7B89BF0FBF10921E0110920F
S11320B01D01DE98DD98DE9A83E00E943D0107C091
S11320C08FB7F894992722E02093D4018FBF009111
S11320D0B1011091B2010E94FF01809142029091DE
S11320E04302892B09F074C48FEF80930A014F2DAA
S11320F0B80162C48FB7F894282F3327122F809128
S11321004A02882309F0EDCE81E080934A0280914F
S11321101D0190911E01049721F481E00E942C0678
S113212003C086E00E943D011FBF52C48FB7F894DC
S1132130992710924A028FBF4BC48FB7F894282F67
S1132140332780911F01882309F0CBCE2FBF80B3A2
S1132150992736E0969587953A95E1F7182F1170EF
S11321609091A8018091A9018917D9F01917C9F490
S113217084E090E090931E0180931D018FB7F89442
S1132180992721E020931F018FBF60E070E08DE16B
S11321900E9437080E944C05C09AC09882E00E94B1
S11321A03D011093A90187E00E943D0111C48FB73E
S11321B0F8949927109103018FBF123009F465C078
S11321C0133030F4112359F0113009F001C448C020
S11321D0133009F474C0143009F0FAC3A0C0C098D5
S11321E08FB7F894082F112780911D0190911E013B
S11321F00297A1F583E090E090931E0180931D0166
S113220068E170E08DE10E94370881E08093A801C5
S113221010921F0180B3992726E0969587952A95F9
S1132220E1F7817090708093A90187E00E943D01DD
S113223081E00E9493066FE772E08CE10E94370808
S11322400E9498080E945E0866E57AE287E10E948F
S113225037086FEF70E885E10E9437080FBFB8C3F5
S1132260C09886E00E9493060E9498080E945E0827
S11322700E944C05C09AC09883E00E949306C09ABD
S113228081E00E94A30786E08FCFC0988FB7F894AF
S1132290082F112760E080E00E94CE00882311F00F
S11322A00FBF0AC00FBF83E50E94640180E00E9453
S11322B0640180E00E946401C09A82E02DC08FB75F
S11322C0F8949927209122018FBF243039F02830C7
S11322D041F0223001F50E94A9087AC30E943A0C09
S11322E077C3C09889E00E949306C09A83E00E9455
S11322F0A3078FB7F894992721E030E030932301A6
S1132300209322018FBF8FB7F894992710931C0153
S11323108FBF84E049CF83E00E94A30759C30E9482
S1132320E00656C30FB7F894112740912A01509143
S11323302B016091CC017091CD0180914602909166
S113234047021092CD011092CC01109247021092D4
S1132350460210922B0110922A011092B50110929C
S1132360B40120E00E94230D79CF2FB7F8943327CE
S113237080915B018093060182E0809321012FBF4D
S113238080910601882309F023C3B89AC09888E095
S11323900BCFA0912801B0912901FC909D012F0D34
S11323A0311DF9018081881F8827881FFD0183A7BB
S11323B0F90180818F77FD0181A721503040F90117
S11323C08081FD0180A7A0912801B0912901FD0120
S11323D032818FB7F8949927209159018FBF222316
S11323E009F490C0832F992796958795969587959C
S11323F0837090708230910541F5878146812FB7B3
S1132400F89433276091A6017091A7012FBF9927F3
S1132410982F88275527842B952B8617970719F40F
S113242081E090E06CC0FD018781268140E050E0AE
S11324309927982F88273327822B932B8F5F9F4FC1
S113244011F441E050E0CA015AC0039709F0DCC11D
S11324509E012F5F3F4F49ED51E088E0FA01019062
S1132460AF01F90101929F018150C1F79E012F5DD7
S11324703F4FAE014F5F5F4F88E0FA010190AF011B
S1132480F90101929F018150C1F79E01275F3F4FDF
S1132490AE014F5D5F4F88E0FA010190AF01F90191
S11324A001929F018150C1F79E012F5E3F4FAE0103
S11324B0475F5F4F88E0FA010190AF01F901019293
S11324C09F018150C1F79E01275E3F4FAE014F5ED1
S11324D05F4F88E0FA010190AF01F90101929F0179
S11324E08150C1F748E050E0BE01675E7F4FCD01E7
S11324F006960E94D718892B09F086C103C0882349
S113250009F482C1FCE0FF1508F07EC18090280127
S113251090902901F4012281822F9927F6E0969563
S11325208795FA95E1F7039719F468E070E002C023
S113253062E070E0822F9927969587959695879506
S113254083709070039719F488E090E002C082E0F1
S113255090E026E030E0820E931E20E030E040E080
S113256050E0F401E80FF91F8AEF9FEF880E991EDF
S113257005C08191480F511D2F5F3F4F2617370724
S1132580C4F3F40163818FEF809344028FB7F8940E
S1132590782F20E030E0E1E3F1E08081918184173D
S11325A0950729F48281861731F1209344022F5F25
S11325B03F4F33962430310581F77FBF9091440219
S11325C03FB7F8949F3F21F0809125018917A9F422
S11325D020912501822F9927FC01EE0FFF1FE80FA0
S11325E0F91FEF5CFE4F5183408362832F5F23709A
S11325F0209325010EC07FBF03C1892F9927FC01B9
S1132600EE0FFF1FE80FF91FEF5CFE4F518340836D
S11326106283832F99278FBF0FB7F8941127C401C2
S11326200E947000FC0190810FBFF40183A58823F0
S113263009F4E6C09F3309F0E3C0878146812FB7D0
S1132640F894332760910701709108012FBF9927EF
S1132650982F88275527842B952B8617970761F089
S1132660878126819927982F88273327822B932BBC
S11326708F5F9F4F09F0C4C0F4018385863009F051
S1132680BFC0F9E1FF1609F0BBC0F4018489E588F5
S11326902689A788332744275527542F432F322FC1
S11326A022279927AA27BB27B82FAA279927882743
S11326B0FF24002711278701FF24EE248E299F2958
S11326C0A02BB12BBB24CC24DD248A299B29AC2943
S11326D0BD29282B392B4A2B5B2B8091100190911B
S11326E01101A0911201B0911301820F931FA41F35
S11326F0B51F8093100190931101A0931201B09320
S113270013018089E1882289A38833274427552728
S1132710542F432F322F22279927AA27BB27B82FBC
S1132720AA2799278827FF24002711278701FF2438
S1132730EE248E299F29A02BB12BBB24CC24DD248D
S11327408A299B29AC29BD29282B392B4A2B5B2BA1
S11327508091180190911901A0911A01B0911B0167
S1132760820F931FA41FB51F809318019093190122
S1132770A0931A01B0931B018485E5842685A78460
S1132780332744275527542F432F322F22279927A5
S1132790AA27BB27B82FAA2799278827FF24002711
S11327A011278701FF24EE248E299F29A02BB12B0A
S11327B0BB24CC24DD248A299B29AC29BD29282BC0
S11327C0392B4A2B5B2B8091140190911501A09118
S11327D01601B0911701820F931FA41FB51F809398
S11327E0140190931501A0931601B09317018091E1
S11327F00E0190910F01019690930F0180930E01A9
S113280090922901809228018FB7F8949927109209
S11328105E018FBF0E94F107DBC0809157018823BE
S113282061F52091E4013091E5014091E601509178
S1132830E701EFB7F894FF276091CF017091D001C1
S11328408091D1019091D201E0903F01F09040013C
S113285000914101109142016E0D7F1D801F911F57
S1132860EFBF2093E4013093E5014093E6015093D8
S1132870E701109257010E94AE020E9406020E94D4
S1132880C705A6C00E9406025B016C018FB7F894CD
S113289099271092B3018FBF8091C20181FF25C097
S11328A08091BA019091BB01A091BC01B091BD018E
S11328B0A6019501281B390B4A0B5B0BE090BE0166
S11328C0F090BF010091C0011091C101E21AF30A16
S11328D0040B150B3FEFE3163FEFF3063FEF03073F
S11328E03FE7130711F061E009C08FEFE82E8FEF87
S11328F0F82E8FEF082F8FE7182F60E08091CB011F
S113290081FF21C08091C3019091C401A091C501B0
S1132910B091C601A6019501281B390B4A0B5B0B2C
S1132920DA01C9012091C7013091C8014091C90160
S11329305091CA01281B390B4A0B5B0B2E153F051E
S1132940400751072CF0662309F442C0A8019701FF
S113295012161306140615060CF0C5CA2093E401DA
S11329603093E5014093E6015093E70181E08093C1
S11329705701C601B5010E94AE022AC090916801B8
S113298080910A01981721F190930A019923C9F4BF
S113299000912601109127016091AF01C8010E94A6
S11329A0EF08482F5527442399F08FEF80930A01AD
S11329B06091260170912701F80183850E94080A1D
S11329C007C08FEF80930A0103C0550F41E095CAF9
S11329D0A8960FB6F894DEBF0FBECDBFDF91CF919E
S11329E01F910F91FF90EF90DF90CF90BF90AF9029
S11329F09F908F90089580913D028F3FB1F0282FD2
S1132A003327F901EB5BFE4F808180933D028F3FBA
S1132A1011F480934B028FEF80832F3F31F0822F8C
S1132A200E942F0F81E090E0089580E090E00895E7
S1132A301F93CF93DF93CDB7DEB7E0970FB6F8942B
S1132A40DEBF0FBECDBF1FB7F8944FE050E06FEF6D
S1132A5070E085E491E00E94E4188FEF80933D02DA
S1132A6080934B0281E08EBD88E080BF83E083BF0A
S1132A708CB59DB54AE72CB53DB52817390708F440
S1132A804150442311F0C901F6CF92B782B7891798
S1132A90E9F32CB53DB592B782B78917E9F38CB544
S1132AA09DB5821B930B409675E0969587957A9514
S1132AB0E1F790933F0280933E0213BE83B78EBD2D
S1132AC08EB580BF12BE1DBC1CBC8FEF86BF86B7FF
S1132AD080937C0080B7992787709070892BD1F7F9
S1132AE0D29AD19AD09ADA9AD99AD89A15BA8FEFFB
S1132AF084BBD498DC981DBC1CBC87B7846087BF9A
S1132B008EB5887F84608EBD0E94FB148823E1F714
S1132B108FEF80935C01E1E3F1E08FEF9FEF91830E
S1132B2080831282339621E0ED33F207C1F70E94CD
S1132B30E3026093E3018091000190910101019609
S1132B40AA27BB278093640190936501A093660133
S1132B50B093670180B7886080BF8BE083BF86EE47
S1132B6081BF87B7826087BF0E942D0288E092E010
S1132B7090932901809328018E98B89A8C988FEFAE
S1132B8080936D011092D3011092D4011092D5015B
S1132B901092D601B89AD69AD59A8FB7F8949927F5
S1132BA020910701309108018FBF3093A701209332
S1132BB0A6010E948F0429A73AA74BA75CA76DA77B
S1132BC07EA78FA798ABDE019196FE01B99688E0A7
S1132BD001900D928150E1F7DE015196FE01B1960C
S1132BE088E001900D928150E1F7DE015996FE01D3
S1132BF0719688E001900D928150E1F7A9EDB1E062
S1132C00FE01799688E001900D928150E1F7809160
S1132C10090199279093600180935F018FE180936C
S1132C20CE018AE18093E1010E948F0429A73AA78B
S1132C304BA75CA76DA77EA78FA798ABDE019196E3
S1132C40FE01B99688E001900D928150E1F7DE0112
S1132C501196FE01B19688E001900D928150E1F742
S1132C60DE011996FE01319688E001900D928150A3
S1132C70E1F7A9EDB1E0FE01399688E001900D92EB
S1132C808150E1F7A9EDB1E0FD0137969C91808177
S1132C908D939083319781E0EC3DF807B9F781E09B
S1132CA08093590110924502809361011092D801DA
S1132CB00E94FB148823E1F7812F99278FBF789412
S1132CC00E94020C8FB7F894482F55274BC087B742
S1132CD0992783709070892B19F4E5E0F0E013C014
S1132CE080B7992787709070892BD1F781B792B7F5
S1132CF0891B8C3030F082B7853F18F4E3E0F0E0B4
S1132D0002C0E2E0F0E087B7887BC1F480917D00E7
S1132D108B7FA1F46E9912C08AB190919A00892B8D
S1132D20887161F48091740082FD08C0379B03C0F0
S1132D3081E090E005C085E090E002C080E090E092
S1132D4025B78E1708F4E82FFF27E457FF4FE491C7
S1132D50237E2062E22BE5BF78948895F89485B7AA
S1132D608F7D85BF80913D028F3F09F4B0CF282F1E
S1132D703327F901EB5BFE4F808180933D028F3F47
S1132D8011F480934B028FEF80832F3F09F49FCF80
S1132D904FBF822F0E942F0F95CFACE2B0E0E3ED3E
S1132DA0F6E10C94A018222E332E442E552E662EB6
S1132DB0772E882E992EFE013196A8E01192AA95BD
S1132DC0E9F729823A824B825C826D827E828F820D
S1132DD09886FE013996B8E01192BA95E9F7A9866A
S1132DE0BA86CB86DC86ED86FE860F87188B8981B2
S1132DF09A81AB81BC8189A79AA7ABA7BCA77C01A8
S1132E008D018FEF9FEFA0E0B0E0E822F9220A23C2
S1132E101B2389A59AA5ABA5BCA51D014424552453
S1132E2089859A85AB85BC858DA39EA3AFA3B8A7DE
S1132E305C016D018FEF9FEFA0E0B0E0A822B92202
S1132E40CA22DB228DA19EA1AFA1B8A53D01882491
S1132E509924C801B701A60195010E94811869A3AC
S1132E607AA38BA39CA3C801B701A40193010E9478
S1132E7081187B018C01C201B101A60195010E9458
S1132E8081185B016C01C201B101A40193010E948C
S1132E9081183B014C01EA0CFB1C0C1D1D1D89A172
S1132EA09AA1ABA1BCA19D01442755272E0D3F1D1E
S1132EB0401F511F2A153B054C055D0540F480E079
S1132EC090E0A1E0B0E0680E791E8A1E9B1ECA0144
S1132ED0AA27BB27860D971DA81DB91D8D8F9E8F10
S1132EE0AF8FB8A3A9013327222789A19AA1ABA147
S1132EF0BCA1A070B070280F391F4A1F5B1F298F17
S1132F003A8F4B8F5C8FA98CBA8CCB8CDC8CED8C7C
S1132F10FE8C0F8D18A1FE01719698E011929A957E
S1132F20E9F7ED8AFE8A0F8B188F2D813E814F8140
S1132F3058856DA17EA18FA198A50E9481183B019F
S1132F404C012D853E854F85588969A57AA58BA5A9
S1132F509CA50E9481182D893E894F89588D260F82
S1132F60371F481F591F260D371D481D591D2D8B0E
S1132F703E8B4F8B588F6D887E888F88988C2A2D36
S1132F803B2D4C2D5D2D662D772D882D992DE2E15D
S1132F90AC960C94BC18A0E1B0E0E1EDF7E10C9420
S1132FA0A018222E332E442E552E662E772E882ED0
S1132FB0992E002309F466C088E0FE01319611922F
S1132FC08A95E9F729833A834B835C836D837E83F7
S1132FD08F829887E0E2E01B1E16CCF52D813E819E
S1132FE04F815885602F772767FD7095DA01C901F5
S1132FF0062E04C0B695A795979587950A94D2F79F
S11330008D879E87AF87B88B04C0220F331F441F60
S1133010551FEA95D2F789819A81AB81BC8104C09E
S1133020B695A795979587956A95D2F7282B392B4E
S11330304A2B5B2B29873A874B875C8729843A8400
S11330404B845C846D847E848F8498881BC01D8629
S11330501E861F86188A2E2F332727FD309530951C
S113306021953F4F8D819E81AF81B88504C0B6956F
S1133070A795979587952A95D2F789879A87AB87DD
S1133080BC87DCCF222D332D442D552D662D772D75
S1133090882D992DE2E160960C94BC18991B79E077
S11330A004C0991F961708F0961B881F7A95C9F7D4
S11330B080950895AA1BBB1B51E107C0AA1FBB1F23
S11330C0A617B70710F0A61BB70B881F991F5A95B0
S11330D0A9F780959095BC01CD01089597FB092E21
S11330E007260AD077FD04D0E5DF06D000201AF4C5
S11330F0709561957F4F0895F6F7909581959F4F50
S11331000895629FD001739FF001829FE00DF11D2D
S1133110649FE00DF11D929FF00D839FF00D749F4D
S1133120F00D659FF00D9927729FB00DE11DF91FF9
S1133130639FB00DE11DF91FBD01CF011124089556
S11331402F923F924F925F926F927F928F929F92B3
S1133150AF92BF92CF92DF92EF92FF920F931F93A1
S1133160CF93DF93CDB7DEB7CA1BDB0B0FB6F89452
S1133170DEBF0FBECDBF09942A88398848885F8492
S11331806E847D848C849B84AA84B984C884DF8003
S1133190EE80FD800C811B81AA81B981CE0FD11DE7
S11331A00FB6F894DEBF0FBECDBFED010895FB014D
S11331B0DC0104C08D910190801921F441505040EC
S11331C0C8F7881B990B0895DC0101C06D93415029
S10B31D05040E0F70895FFCF21
S11131D8010001FFFFFFFF010022FFFFFF00C7
S9030000FC
